{
  "contractName": "Election",
  "abi": [
    {
      "inputs": [],
      "payable": false,
      "stateMutability": "nonpayable",
      "type": "constructor"
    },
    {
      "constant": true,
      "inputs": [],
      "name": "candidateCount",
      "outputs": [
        {
          "internalType": "uint256",
          "name": "",
          "type": "uint256"
        }
      ],
      "payable": false,
      "stateMutability": "view",
      "type": "function"
    },
    {
      "constant": true,
      "inputs": [
        {
          "internalType": "uint256",
          "name": "",
          "type": "uint256"
        }
      ],
      "name": "candidateMap",
      "outputs": [
        {
          "internalType": "uint256",
          "name": "candidateId",
          "type": "uint256"
        },
        {
          "internalType": "string",
          "name": "candidateName",
          "type": "string"
        },
        {
          "internalType": "uint256",
          "name": "candidateVoteCount",
          "type": "uint256"
        }
      ],
      "payable": false,
      "stateMutability": "view",
      "type": "function"
    },
    {
      "constant": true,
      "inputs": [
        {
          "internalType": "address",
          "name": "",
          "type": "address"
        }
      ],
      "name": "voters",
      "outputs": [
        {
          "internalType": "bool",
          "name": "",
          "type": "bool"
        }
      ],
      "payable": false,
      "stateMutability": "view",
      "type": "function"
    },
    {
      "constant": false,
      "inputs": [
        {
          "internalType": "uint256",
          "name": "_candidateId",
          "type": "uint256"
        }
      ],
      "name": "CastVote",
      "outputs": [],
      "payable": false,
      "stateMutability": "nonpayable",
      "type": "function"
    }
  ],
  "bytecode": "0x608060405234801561001057600080fd5b506000808190555061005c6040518060400160405280601681526020017f426861726174697961204a616e6174612050617274790000000000000000000081525061028160201b60201c565b6100a06040518060400160405280601881526020017f496e6469616e204e6174696f6e616c20436f6e6772657373000000000000000081525061028160201b60201c565b6100e46040518060400160405280600981526020017f536869762053656e61000000000000000000000000000000000000000000000081525061028160201b60201c565b6101286040518060400160405280601381526020017f426168756a616e2053616d616a2050617274790000000000000000000000000081525061028160201b60201c565b61016c6040518060400160405280601081526020017f53616d616a68776164692050617274790000000000000000000000000000000081525061028160201b60201c565b6101b06040518060400160405280600b81526020017f496e646570656e64656e7400000000000000000000000000000000000000000081525061028160201b60201c565b6101f46040518060400160405280601881526020017f436f6d6d756e697374205061727479206f6620496e646961000000000000000081525061028160201b60201c565b6102386040518060400160405280600f81526020017f41616d206161646d69205061727479000000000000000000000000000000000081525061028160201b60201c565b61027c6040518060400160405280601c81526020017f416c6c20496e646961205472696e616d6f6f6c20436f6e67726573730000000081525061028160201b60201c565b6103a0565b600080815480929190600101919050555060405180606001604052806000548152602001828152602001600081525060016000805481526020019081526020016000206000820151816000015560208201518160010190805190602001906102ea9291906102fb565b506040820151816002015590505050565b828054600181600116156101000203166002900490600052602060002090601f016020900481019282601f1061033c57805160ff191683800117855561036a565b8280016001018555821561036a579182015b8281111561036957825182559160200191906001019061034e565b5b509050610377919061037b565b5090565b61039d91905b80821115610399576000816000905550600101610381565b5090565b90565b6103be806103af6000396000f3fe608060405234801561001057600080fd5b506004361061004c5760003560e01c80630a4fa3311461005157806319521eec14610106578063a3ec138d14610134578063a9a981a314610190575b600080fd5b61007d6004803603602081101561006757600080fd5b81019080803590602001909291905050506101ae565b6040518084815260200180602001838152602001828103825284818151815260200191508051906020019080838360005b838110156100c95780820151818401526020810190506100ae565b50505050905090810190601f1680156100f65780820380516001836020036101000a031916815260200191505b5094505050505060405180910390f35b6101326004803603602081101561011c57600080fd5b8101908080359060200190929190505050610270565b005b6101766004803603602081101561014a57600080fd5b81019080803573ffffffffffffffffffffffffffffffffffffffff169060200190929190505050610363565b604051808215151515815260200191505060405180910390f35b610198610383565b6040518082815260200191505060405180910390f35b6001602052806000526040600020600091509050806000015490806001018054600181600116156101000203166002900480601f0160208091040260200160405190810160405280929190818152602001828054600181600116156101000203166002900480156102605780601f1061023557610100808354040283529160200191610260565b820191906000526020600020905b81548152906001019060200180831161024357829003601f168201915b5050505050908060020154905083565b600260003373ffffffffffffffffffffffffffffffffffffffff1673ffffffffffffffffffffffffffffffffffffffff16815260200190815260200160002060009054906101000a900460ff16156102c757600080fd5b6000811180156102d957506000548111155b6102e257600080fd5b6001600260003373ffffffffffffffffffffffffffffffffffffffff1673ffffffffffffffffffffffffffffffffffffffff16815260200190815260200160002060006101000a81548160ff021916908315150217905550600160008281526020019081526020016000206002016000815480929190600101919050555050565b60026020528060005260406000206000915054906101000a900460ff1681565b6000548156fea265627a7a72315820127831141b378f766f9c3a090a3c776b7e3755918344a40066bd0d030688be8364736f6c63430005100032",
  "source": "pragma solidity ^0.5.12;\r\n\r\ncontract Election {\r\n\t// structure for candidates\r\n\tstruct Candidate {\r\n\t\tuint candidateId;\r\n\t\tstring candidateName;\r\n\t\tuint candidateVoteCount;\r\n\t}\r\n\r\n\tuint public candidateCount;\r\n\tmapping(uint => Candidate) public candidateMap;\r\n\tmapping(address => bool) public voters;\r\n\r\n\tconstructor() public {\r\n\t\tcandidateCount = 0;\r\n\t\taddCandidate(\"Bharatiya Janata Party\");\r\n\t\taddCandidate(\"Indian National Congress\");\r\n\t\taddCandidate(\"Shiv Sena\");\r\n\t\taddCandidate(\"Bahujan Samaj Party\");\r\n\t\taddCandidate(\"Samajhwadi Party\");\r\n\t\taddCandidate(\"Independent\");\r\n\t\taddCandidate(\"Communist Party of India\");\r\n\t\taddCandidate(\"Aam aadmi Party\");\r\n\t\taddCandidate(\"All India Trinamool Congress\");\r\n\t}\r\n\r\n\tfunction addCandidate(string memory _candidateName) private {\r\n\t\tcandidateCount++;\r\n\t\tcandidateMap[candidateCount] = Candidate(candidateCount, _candidateName, 0);\r\n\t}\r\n\r\n\tfunction CastVote(uint _candidateId) public {\r\n\t\trequire(!voters[msg.sender]);\r\n\t\trequire(_candidateId> 0 && _candidateId <= candidateCount);\r\n\t\tvoters[msg.sender] = true;\r\n\t\tcandidateMap[_candidateId].candidateVoteCount++;\r\n\t}\r\n}",
  "sourcePath": "F:/Desktop/Major/Election App/contracts/Election.sol",
  "compiler": {
    "name": "solc",
    "version": "0.5.16+commit.9c3226ce.Emscripten.clang"
  },
  "schemaVersion": "3.3.2",
  "updatedAt": "2020-12-09T09:32:54.019Z",
  "networkType": "ethereum",
  "devdoc": {
    "methods": {}
  },
  "userdoc": {
    "methods": {}
  }
}